{
  "contractName": "FootballTicketBooking",
  "abi": [
    {
      "inputs": [],
      "stateMutability": "nonpayable",
      "type": "constructor"
    },
    {
      "anonymous": false,
      "inputs": [
        {
          "indexed": false,
          "internalType": "uint256",
          "name": "matchId",
          "type": "uint256"
        },
        {
          "indexed": false,
          "internalType": "string",
          "name": "teamA",
          "type": "string"
        },
        {
          "indexed": false,
          "internalType": "string",
          "name": "teamB",
          "type": "string"
        },
        {
          "indexed": false,
          "internalType": "uint256",
          "name": "ticketPrice",
          "type": "uint256"
        },
        {
          "indexed": false,
          "internalType": "uint256",
          "name": "ticketCapacity",
          "type": "uint256"
        }
      ],
      "name": "MatchAdded",
      "type": "event"
    },
    {
      "anonymous": false,
      "inputs": [
        {
          "indexed": false,
          "internalType": "address",
          "name": "user",
          "type": "address"
        },
        {
          "indexed": false,
          "internalType": "uint256",
          "name": "matchId",
          "type": "uint256"
        },
        {
          "indexed": false,
          "internalType": "uint256",
          "name": "ticketId",
          "type": "uint256"
        }
      ],
      "name": "TicketBooked",
      "type": "event"
    },
    {
      "inputs": [],
      "name": "admin",
      "outputs": [
        {
          "internalType": "address",
          "name": "",
          "type": "address"
        }
      ],
      "stateMutability": "view",
      "type": "function"
    },
    {
      "inputs": [
        {
          "internalType": "uint256",
          "name": "",
          "type": "uint256"
        }
      ],
      "name": "matches",
      "outputs": [
        {
          "internalType": "uint256",
          "name": "matchId",
          "type": "uint256"
        },
        {
          "internalType": "string",
          "name": "teamA",
          "type": "string"
        },
        {
          "internalType": "string",
          "name": "teamB",
          "type": "string"
        },
        {
          "internalType": "uint256",
          "name": "ticketPrice",
          "type": "uint256"
        },
        {
          "internalType": "uint256",
          "name": "ticketCapacity",
          "type": "uint256"
        },
        {
          "internalType": "uint256",
          "name": "ticketsSold",
          "type": "uint256"
        },
        {
          "internalType": "bool",
          "name": "isOpenForBooking",
          "type": "bool"
        }
      ],
      "stateMutability": "view",
      "type": "function"
    },
    {
      "inputs": [],
      "name": "nextMatchId",
      "outputs": [
        {
          "internalType": "uint256",
          "name": "",
          "type": "uint256"
        }
      ],
      "stateMutability": "view",
      "type": "function"
    },
    {
      "inputs": [
        {
          "internalType": "address",
          "name": "",
          "type": "address"
        }
      ],
      "name": "users",
      "outputs": [
        {
          "internalType": "string",
          "name": "firstName",
          "type": "string"
        },
        {
          "internalType": "string",
          "name": "lastName",
          "type": "string"
        },
        {
          "internalType": "uint256",
          "name": "idNumber",
          "type": "uint256"
        },
        {
          "internalType": "string",
          "name": "email",
          "type": "string"
        },
        {
          "internalType": "string",
          "name": "password",
          "type": "string"
        },
        {
          "internalType": "address",
          "name": "walletAddress",
          "type": "address"
        }
      ],
      "stateMutability": "view",
      "type": "function"
    },
    {
      "inputs": [
        {
          "internalType": "string",
          "name": "_teamA",
          "type": "string"
        },
        {
          "internalType": "string",
          "name": "_teamB",
          "type": "string"
        },
        {
          "internalType": "uint256",
          "name": "_ticketPrice",
          "type": "uint256"
        },
        {
          "internalType": "uint256",
          "name": "_ticketCapacity",
          "type": "uint256"
        }
      ],
      "name": "addMatch",
      "outputs": [],
      "stateMutability": "nonpayable",
      "type": "function"
    },
    {
      "inputs": [
        {
          "internalType": "string",
          "name": "_firstName",
          "type": "string"
        },
        {
          "internalType": "string",
          "name": "_lastName",
          "type": "string"
        },
        {
          "internalType": "uint256",
          "name": "_idNumber",
          "type": "uint256"
        },
        {
          "internalType": "string",
          "name": "_email",
          "type": "string"
        },
        {
          "internalType": "string",
          "name": "_password",
          "type": "string"
        }
      ],
      "name": "register",
      "outputs": [],
      "stateMutability": "nonpayable",
      "type": "function"
    },
    {
      "inputs": [
        {
          "internalType": "uint256",
          "name": "_matchId",
          "type": "uint256"
        }
      ],
      "name": "bookTicket",
      "outputs": [],
      "stateMutability": "payable",
      "type": "function"
    },
    {
      "inputs": [
        {
          "internalType": "uint256",
          "name": "_matchId",
          "type": "uint256"
        }
      ],
      "name": "closeBooking",
      "outputs": [],
      "stateMutability": "nonpayable",
      "type": "function"
    }
  ],
  "bytecode": "0x608060405234801561001057600080fd5b50336000806101000a81548173ffffffffffffffffffffffffffffffffffffffff021916908373ffffffffffffffffffffffffffffffffffffffff160217905550600160028190555061179e806100686000396000f3fe60806040526004361061007b5760003560e01c80638499cfe31161004e5780638499cfe314610131578063a87430ba1461015a578063c5adf7c91461019c578063f851a440146101c75761007b565b80630ef79cdd146100805780631c91a65e146100a95780634768d4ef146100c5578063506c244e14610108575b600080fd5b34801561008c57600080fd5b506100a760048036038101906100a29190610ecb565b6101f2565b005b6100c360048036038101906100be9190610f6a565b6103b0565b005b3480156100d157600080fd5b506100ec60048036038101906100e79190610f6a565b6105e6565b6040516100ff9796959493929190611049565b60405180910390f35b34801561011457600080fd5b5061012f600480360381019061012a9190610f6a565b610745565b005b34801561013d57600080fd5b50610158600480360381019061015391906110c6565b610805565b005b34801561016657600080fd5b50610181600480360381019061017c919061120f565b6109f2565b6040516101939695949392919061124b565b60405180910390f35b3480156101a857600080fd5b506101b1610c6e565b6040516101be91906112c8565b60405180910390f35b3480156101d357600080fd5b506101dc610c74565b6040516101e991906112e3565b60405180910390f35b60008054906101000a900473ffffffffffffffffffffffffffffffffffffffff1673ffffffffffffffffffffffffffffffffffffffff163373ffffffffffffffffffffffffffffffffffffffff1614610280576040517f08c379a000000000000000000000000000000000000000000000000000000000815260040161027790611370565b60405180910390fd5b600060026000815480929190610295906113bf565b9190505590506040518060e0016040528082815260200186815260200185815260200184815260200183815260200160008152602001600115158152506001600083815260200190815260200160002060008201518160000155602082015181600101908051906020019061030b929190610c98565b506040820151816002019080519060200190610328929190610c98565b50606082015181600301556080820151816004015560a0820151816005015560c08201518160060160006101000a81548160ff0219169083151502179055509050507f69e342fc22ceb8fbc792b8253ef61e6a9525e29f8e49eb9ba2ced64b05bc4f5281868686866040516103a1959493929190611407565b60405180910390a15050505050565b60006001600083815260200190815260200160002090508060060160009054906101000a900460ff16610418576040517f08c379a000000000000000000000000000000000000000000000000000000000815260040161040f906114b4565b60405180910390fd5b8060040154816005015410610462576040517f08c379a000000000000000000000000000000000000000000000000000000000815260040161045990611520565b60405180910390fd5b806003015434146104a8576040517f08c379a000000000000000000000000000000000000000000000000000000000815260040161049f9061158c565b60405180910390fd5b6000600360003373ffffffffffffffffffffffffffffffffffffffff1673ffffffffffffffffffffffffffffffffffffffff16815260200190815260200160002090508060060160008481526020019081526020016000206001836005015461051191906115ac565b908060018154018082558091505060019003906000526020600020016000909190919091505581600501600081548092919061054c906113bf565b91905055507fa118b2ede63e92074aeb7dc8fd50527b816281c2e136e3084519254841d9617c33848360060160008781526020019081526020016000206001856006016000898152602001908152602001600020805490506105ae9190611602565b815481106105bf576105be611636565b5b90600052602060002001546040516105d993929190611665565b60405180910390a1505050565b600160205280600052604060002060009150905080600001549080600101805461060f906116cb565b80601f016020809104026020016040519081016040528092919081815260200182805461063b906116cb565b80156106885780601f1061065d57610100808354040283529160200191610688565b820191906000526020600020905b81548152906001019060200180831161066b57829003601f168201915b50505050509080600201805461069d906116cb565b80601f01602080910402602001604051908101604052809291908181526020018280546106c9906116cb565b80156107165780601f106106eb57610100808354040283529160200191610716565b820191906000526020600020905b8154815290600101906020018083116106f957829003601f168201915b5050505050908060030154908060040154908060050154908060060160009054906101000a900460ff16905087565b60008054906101000a900473ffffffffffffffffffffffffffffffffffffffff1673ffffffffffffffffffffffffffffffffffffffff163373ffffffffffffffffffffffffffffffffffffffff16146107d3576040517f08c379a00000000000000000000000000000000000000000000000000000000081526004016107ca90611370565b60405180910390fd5b60006001600083815260200190815260200160002060060160006101000a81548160ff02191690831515021790555050565b600073ffffffffffffffffffffffffffffffffffffffff16600360003373ffffffffffffffffffffffffffffffffffffffff1673ffffffffffffffffffffffffffffffffffffffff16815260200190815260200160002060050160009054906101000a900473ffffffffffffffffffffffffffffffffffffffff1673ffffffffffffffffffffffffffffffffffffffff16146108d6576040517f08c379a00000000000000000000000000000000000000000000000000000000081526004016108cd90611748565b60405180910390fd5b6000600360003373ffffffffffffffffffffffffffffffffffffffff1673ffffffffffffffffffffffffffffffffffffffff168152602001908152602001600020905085816000019080519060200190610931929190610c98565b508481600101908051906020019061094a929190610c98565b508381600201819055508281600301908051906020019061096c929190610c98565b5081816004019080519060200190610985929190610c98565b50338160050160006101000a81548173ffffffffffffffffffffffffffffffffffffffff021916908373ffffffffffffffffffffffffffffffffffffffff16021790555060005b6002548110156109e95780806109e1906113bf565b9150506109cc565b50505050505050565b6003602052806000526040600020600091509050806000018054610a15906116cb565b80601f0160208091040260200160405190810160405280929190818152602001828054610a41906116cb565b8015610a8e5780601f10610a6357610100808354040283529160200191610a8e565b820191906000526020600020905b815481529060010190602001808311610a7157829003601f168201915b505050505090806001018054610aa3906116cb565b80601f0160208091040260200160405190810160405280929190818152602001828054610acf906116cb565b8015610b1c5780601f10610af157610100808354040283529160200191610b1c565b820191906000526020600020905b815481529060010190602001808311610aff57829003601f168201915b505050505090806002015490806003018054610b37906116cb565b80601f0160208091040260200160405190810160405280929190818152602001828054610b63906116cb565b8015610bb05780601f10610b8557610100808354040283529160200191610bb0565b820191906000526020600020905b815481529060010190602001808311610b9357829003601f168201915b505050505090806004018054610bc5906116cb565b80601f0160208091040260200160405190810160405280929190818152602001828054610bf1906116cb565b8015610c3e5780601f10610c1357610100808354040283529160200191610c3e565b820191906000526020600020905b815481529060010190602001808311610c2157829003601f168201915b5050505050908060050160009054906101000a900473ffffffffffffffffffffffffffffffffffffffff16905086565b60025481565b60008054906101000a900473ffffffffffffffffffffffffffffffffffffffff1681565b828054610ca4906116cb565b90600052602060002090601f016020900481019282610cc65760008555610d0d565b82601f10610cdf57805160ff1916838001178555610d0d565b82800160010185558215610d0d579182015b82811115610d0c578251825591602001919060010190610cf1565b5b509050610d1a9190610d1e565b5090565b5b80821115610d37576000816000905550600101610d1f565b5090565b6000604051905090565b600080fd5b600080fd5b600080fd5b600080fd5b6000601f19601f8301169050919050565b7f4e487b7100000000000000000000000000000000000000000000000000000000600052604160045260246000fd5b610da282610d59565b810181811067ffffffffffffffff82111715610dc157610dc0610d6a565b5b80604052505050565b6000610dd4610d3b565b9050610de08282610d99565b919050565b600067ffffffffffffffff821115610e0057610dff610d6a565b5b610e0982610d59565b9050602081019050919050565b82818337600083830152505050565b6000610e38610e3384610de5565b610dca565b905082815260208101848484011115610e5457610e53610d54565b5b610e5f848285610e16565b509392505050565b600082601f830112610e7c57610e7b610d4f565b5b8135610e8c848260208601610e25565b91505092915050565b6000819050919050565b610ea881610e95565b8114610eb357600080fd5b50565b600081359050610ec581610e9f565b92915050565b60008060008060808587031215610ee557610ee4610d45565b5b600085013567ffffffffffffffff811115610f0357610f02610d4a565b5b610f0f87828801610e67565b945050602085013567ffffffffffffffff811115610f3057610f2f610d4a565b5b610f3c87828801610e67565b9350506040610f4d87828801610eb6565b9250506060610f5e87828801610eb6565b91505092959194509250565b600060208284031215610f8057610f7f610d45565b5b6000610f8e84828501610eb6565b91505092915050565b610fa081610e95565b82525050565b600081519050919050565b600082825260208201905092915050565b60005b83811015610fe0578082015181840152602081019050610fc5565b83811115610fef576000848401525b50505050565b600061100082610fa6565b61100a8185610fb1565b935061101a818560208601610fc2565b61102381610d59565b840191505092915050565b60008115159050919050565b6110438161102e565b82525050565b600060e08201905061105e600083018a610f97565b81810360208301526110708189610ff5565b905081810360408301526110848188610ff5565b90506110936060830187610f97565b6110a06080830186610f97565b6110ad60a0830185610f97565b6110ba60c083018461103a565b98975050505050505050565b600080600080600060a086880312156110e2576110e1610d45565b5b600086013567ffffffffffffffff811115611100576110ff610d4a565b5b61110c88828901610e67565b955050602086013567ffffffffffffffff81111561112d5761112c610d4a565b5b61113988828901610e67565b945050604061114a88828901610eb6565b935050606086013567ffffffffffffffff81111561116b5761116a610d4a565b5b61117788828901610e67565b925050608086013567ffffffffffffffff81111561119857611197610d4a565b5b6111a488828901610e67565b9150509295509295909350565b600073ffffffffffffffffffffffffffffffffffffffff82169050919050565b60006111dc826111b1565b9050919050565b6111ec816111d1565b81146111f757600080fd5b50565b600081359050611209816111e3565b92915050565b60006020828403121561122557611224610d45565b5b6000611233848285016111fa565b91505092915050565b611245816111d1565b82525050565b600060c08201905081810360008301526112658189610ff5565b905081810360208301526112798188610ff5565b90506112886040830187610f97565b818103606083015261129a8186610ff5565b905081810360808301526112ae8185610ff5565b90506112bd60a083018461123c565b979650505050505050565b60006020820190506112dd6000830184610f97565b92915050565b60006020820190506112f8600083018461123c565b92915050565b7f4f6e6c792061646d696e2063616e20706572666f726d2074686973206163746960008201527f6f6e000000000000000000000000000000000000000000000000000000000000602082015250565b600061135a602283610fb1565b9150611365826112fe565b604082019050919050565b600060208201905081810360008301526113898161134d565b9050919050565b7f4e487b7100000000000000000000000000000000000000000000000000000000600052601160045260246000fd5b60006113ca82610e95565b91507fffffffffffffffffffffffffffffffffffffffffffffffffffffffffffffffff82036113fc576113fb611390565b5b600182019050919050565b600060a08201905061141c6000830188610f97565b818103602083015261142e8187610ff5565b905081810360408301526114428186610ff5565b90506114516060830185610f97565b61145e6080830184610f97565b9695505050505050565b7f4d61746368206e6f74206f70656e20666f7220626f6f6b696e67000000000000600082015250565b600061149e601a83610fb1565b91506114a982611468565b602082019050919050565b600060208201905081810360008301526114cd81611491565b9050919050565b7f4e6f206d6f7265207469636b65747320617661696c61626c6500000000000000600082015250565b600061150a601983610fb1565b9150611515826114d4565b602082019050919050565b60006020820190508181036000830152611539816114fd565b9050919050565b7f496e636f7272656374207061796d656e7420616d6f756e740000000000000000600082015250565b6000611576601883610fb1565b915061158182611540565b602082019050919050565b600060208201905081810360008301526115a581611569565b9050919050565b60006115b782610e95565b91506115c283610e95565b9250827fffffffffffffffffffffffffffffffffffffffffffffffffffffffffffffffff038211156115f7576115f6611390565b5b828201905092915050565b600061160d82610e95565b915061161883610e95565b92508282101561162b5761162a611390565b5b828203905092915050565b7f4e487b7100000000000000000000000000000000000000000000000000000000600052603260045260246000fd5b600060608201905061167a600083018661123c565b6116876020830185610f97565b6116946040830184610f97565b949350505050565b7f4e487b7100000000000000000000000000000000000000000000000000000000600052602260045260246000fd5b600060028204905060018216806116e357607f821691505b6020821081036116f6576116f561169c565b5b50919050565b7f5573657220616c72656164792072656769737465726564000000000000000000600082015250565b6000611732601783610fb1565b915061173d826116fc565b602082019050919050565b6000602082019050818103600083015261176181611725565b905091905056fea2646970667358221220709986fde625c9eaf17c7100eb0af9125ecfe156894bdc56c9d3d12e6956060964736f6c634300080d0033",
  "immutableReferences": {},
  "source": "//SPDX-License-Identifier: MIT\r\n\r\npragma solidity >=0.4.22 <0.9.0;\r\n\r\ncontract FootballTicketBooking {\r\n    address public admin;\r\n\r\n    struct Match {\r\n        uint256 matchId;\r\n        string teamA;\r\n        string teamB;\r\n        uint256 ticketPrice;\r\n        uint256 ticketCapacity;\r\n        uint256 ticketsSold;\r\n        bool isOpenForBooking;\r\n    }\r\n\r\n    mapping(uint256 => Match) public matches;\r\n    uint256 public nextMatchId;\r\n\r\n    struct User {\r\n        string firstName;\r\n        string lastName;\r\n        uint256 idNumber;\r\n        string email;\r\n        string password;\r\n        address walletAddress;\r\n        mapping(uint256 => uint256[]) tickets; // matchId => ticketIds\r\n    }\r\n\r\n    mapping(address => User) public users;\r\n\r\n    event MatchAdded(uint256 matchId, string teamA, string teamB, uint256 ticketPrice, uint256 ticketCapacity);\r\n    event TicketBooked(address user, uint256 matchId, uint256 ticketId);\r\n\r\n    modifier onlyAdmin() {\r\n        require(msg.sender == admin, \"Only admin can perform this action\");\r\n        _;\r\n    }\r\n\r\n    \r\n\r\n    function addMatch(string memory _teamA, string memory _teamB, uint256 _ticketPrice, uint256 _ticketCapacity) public onlyAdmin {\r\n        uint256 matchId = nextMatchId++;\r\n        matches[matchId] = Match(matchId, _teamA, _teamB, _ticketPrice, _ticketCapacity, 0, true);\r\n        emit MatchAdded(matchId, _teamA, _teamB, _ticketPrice, _ticketCapacity);\r\n    }\r\n\r\n    constructor() {\r\n    admin = msg.sender;\r\n    nextMatchId = 1; // Initialize nextMatchId to 1\r\n}\r\n\r\n    function register(string memory _firstName, string memory _lastName, uint256 _idNumber, string memory _email, string memory _password) public {\r\n    require(users[msg.sender].walletAddress == address(0), \"User already registered\"); // Check if user is not already registered\r\n\r\n        // Create a new User struct\r\n        User storage newUser = users[msg.sender];\r\n        newUser.firstName = _firstName;\r\n        newUser.lastName = _lastName;\r\n        newUser.idNumber = _idNumber;\r\n        newUser.email = _email;\r\n        newUser.password = _password;\r\n        newUser.walletAddress = msg.sender;\r\n        \r\n        // Initialize the mapping\r\n        for (uint256 i = 0; i < nextMatchId; i++) {\r\n            newUser.tickets ;\r\n        }\r\n    }\r\n\r\n    function bookTicket(uint256 _matchId) public payable {\r\n        Match storage matchInfo = matches[_matchId];\r\n        require(matchInfo.isOpenForBooking, \"Match not open for booking\");\r\n        require(matchInfo.ticketsSold < matchInfo.ticketCapacity, \"No more tickets available\");\r\n        require(msg.value == matchInfo.ticketPrice, \"Incorrect payment amount\");\r\n\r\n        User storage user = users[msg.sender];\r\n        user.tickets[_matchId].push(matchInfo.ticketsSold + 1);\r\n        matchInfo.ticketsSold++;\r\n\r\n        emit TicketBooked(msg.sender, _matchId, user.tickets[_matchId][user.tickets[_matchId].length - 1]);\r\n    }\r\n\r\n    function closeBooking(uint256 _matchId) public onlyAdmin {\r\n        matches[_matchId].isOpenForBooking = false;\r\n    }\r\n}",
  "sourcePath": "C:\\Users\\mohab\\Desktop\\project\\contracts\\FootballTicketBooking.sol",
  "compiler": {
    "name": "solc",
    "version": "0.8.13+commit.abaa5c0e.Emscripten.clang"
  },
  "schemaVersion": "3.4.16",
  "updatedAt": "2024-05-20T11:52:19.454Z",
  "devdoc": {
    "kind": "dev",
    "methods": {},
    "version": 1
  },
  "userdoc": {
    "kind": "user",
    "methods": {},
    "version": 1
  }
}